:100000001BC035C034C033C0D1C2F8C21FC32FC01B
:100010002EC02DC02CC02BC0E5C329C028C027C0CE
:1000200026C025C024C0D2C050C139C13CC140C186
:1000300036C139C13DC141C111241FBECFEFD2E04D
:10004000DEBFCDBF11E0A0E0B1E0E4E6FAE002C01F
:1000500005900D92A830B107D9F721E0A8E0B1E0F2
:1000600001C01D92A633B207E1F7B0D1F9C4C8CFE1
:10007000FC011082618313820895FC01808182302B
:10008000A1F018F4813031F02CC08330A1F084301D
:10009000F9F027C0662331F092819150928391113B
:1000A00023C014C0818182830DC061110FC0818182
:1000B000828383E019C0611107C0928191509283BD
:1000C000911112C084E010C08181828382E00CC053
:1000D0008381811113826623A9F38181828381E068
:1000E00003C0662379F3F2CF80830895FC019081E9
:1000F0009250923030F48381811106C081E090E00B
:10010000089580E090E0089582E090E00895FC0179
:1001100090819250923010F481E083830895109280
:100120000901109208018DC3EAE0F1E0119281E02B
:10013000E431F807D9F78AE091E09FD38091640019
:100140008F778093640086E68093BA0085EC809375
:10015000BC00E5CF8E3079F040F4883050F4E82FC1
:10016000F0E0E65FFE4F808108958F3011F481E06A
:1001700008958FEF089582E00895EAE0F1E0978115
:10018000892B87830895EAE0F1E0809597818923A0
:1001900087830895E82F862FE33018F4E13040F488
:1001A00076C3E43090F0E63040F0E73069F008952F
:1001B000F0E0E65FFE4F60830895F0E0E65FFE4FFB
:1001C000608382E090E073C2DECF08951F920F92A9
:1001D0000FB60F9211242F933F934F935F936F931A
:1001E0007F938F939F93AF93BF93EF93FF938091F0
:1001F000B900887F803871F040F4882359F1803647
:1002000059F580910901886015C0883AE9F0883B6A
:10021000D9F022C08091090183FF0FC08091BB00FB
:100220008093080180910901877F80930901809163
:1002300009018160809309010FC06091BB0080912A
:100240000801A8DF85E809C08091080183DF809359
:10025000BB0002C01092BC0085EC8093BC00FF91F3
:10026000EF91BF91AF919F918F917F916F915F912E
:100270004F913F912F910F900FBE0F901F901895A7
:10028000FC014481558122813381E0818E2F90E0F1
:1002900088309105E0F4FC01EC5EFF4F09942417CF
:1002A000350788F412C058982417350750F40EC04B
:1002B0002417350750F0589A04C02417350718F44E
:1002C0005898599A0895589A01C05898599808957D
:1002D000FC01108211821382128215821482089509
:1002E000CF93DF93EC018881861719F068831D8214
:1002F0001C828981841719F049831D821C82E9813F
:10030000E150E43040F4F0E0EE0FFF1FE050FF4F0B
:100310006081718102C06FEF7FEF80E090E030E09C
:1003200040E050E062D32FEF30E040E050E076D381
:100330008A819B818217930721F03B832A831D8248
:100340001C82CE01DF91CF919BCFDC011196EC9105
:10035000E150E43040F4F0E0EE0FFF1FE050FF4FBB
:100360004081518102C04FEF5FEFFC012481358154
:100370002417350728F42F5F3F4F3583248302C0AD
:10038000158214827DCF80911601813031F482E094
:1003900090E00BD2719A1092160180911501813074
:1003A00039F483E090E001D23F984798109215010C
:1003B00080911401813039F484E090E0F6D16A989C
:1003C000729810921401C2D169D1A9CEF894B0D11B
:1003D0008DEA80936400A8DEC6D18CE191E078DFDD
:1003E0006AE088E191E044DE80916C00806880934F
:1003F0006C0080916D00846080936D0080916A0034
:10040000816080936A00809168008E6080936800AC
:10041000BADF269A2E9820E040E061E08CE191E07E
:100420005FDF789411E083B7897F83BF83B78160F2
:1004300083BF889583B78E7F83BF2E9A43D1EC010B
:10044000892B09F448C0C830D10581F1A8F4C13026
:10045000D10529F1C230D105D9F585E07BDE082F21
:1004600084E078DE482F4F70682F62956F70202FE0
:100470008CE191E035DF2CC0C032D10599F0C03459
:10048000D105E9F0C031D10519F566E970E083E0E6
:1004900090E080D147983F9A1093150119C084E0ED
:1004A0006CDE16C080E469DE6EDF12C061E070E0D1
:1004B00082E090E06FD171981093160109C064EF4B
:1004C00071E084E090E066D172986A9A109314010A
:1004D000CE0118D1B3CF71D1882309F465C05E9ADB
:1004E0008CE191E032DF16D266B1617088E191E073
:1004F000C4DD88E191E0FADDEC01019779F461E077
:1005000070E080E090E046D168E873E181E090E03F
:1005100041D188E191E0FBDD109317018091170133
:10052000813091F4CD2B81F481E090E04CD188238F
:1005300011F080E106C080E090E045D1882311F001
:1005400081E01BDE1092170180911601813059F471
:1005500082E090E038D1882331F082E090E025D12C
:10056000719A1092160180911501813061F483E037
:1005700090E029D1882339F083E090E016D13F98AC
:1005800047981092150180911401813061F484E044
:1005900090E019D1882339F084E090E006D16A9880
:1005A0007298109214015E982E983DCF1F920F9270
:1005B0000FB60F9211242F933F934F935F936F9336
:1005C0007F938F939F93AF93BF93EF93FF93379B4B
:1005D00003C080E290E06BD0D99AFF91EF91BF9178
:1005E000AF919F918F917F916F915F914F913F91CB
:1005F0002F910F900FBE0F901F9018951F920F9282
:100600000FB60F9211242F933F934F935F936F93E5
:100610007F938F939F93AF93BF93EF93FF934A99E9
:1006200003C081E090E043D0DA9AFF91EF91BF914F
:10063000AF919F918F917F916F915F914F913F917A
:100640002F910F900FBE0F901F9018951F920F9231
:100650000FB60F9211242F933F934F935F936F9395
:100660007F938F939F93AF93BF93EF93FF93609983
:1006700003C080E490E01BD0DB9AFF91EF91BF9123
:10068000AF919F918F917F916F915F914F913F912A
:100690002F910F900FBE0F901F901895109225016B
:1006A00010922401109223011092220108952091AA
:1006B000220130912301822B932B9093230180936D
:1006C0002201089580912201909123010097C9F0A1
:1006D00020E030E061E070E0AB01022E02C0440F88
:1006E000551F0A94E2F7FA01E823F923EF2B41F4AE
:1006F0002F5F3F4F2031310579F780E090E008957A
:10070000CA0108952091220130912301AC014223B6
:100710005323452B51F0AC014095509524233523AC
:100720003093230120932201089580E090E0089502
:1007300088E08BB99BEE9AB988B917B815B881E4EF
:1007400084B983E08EB982E08DB90895E7E2F1E0E3
:1007500011821082138212821582148217821682ED
:10076000118610860895F2DFE4E6F0E080818F7D47
:100770008083E1E6F0E080E88083108216BC8DE79C
:1007800087BD8BE085BD15BA82E080936E00109224
:10079000260108958530910538F4880F991FFC01D2
:1007A000E95DFE4F718360830895880F991FFC01F6
:1007B000E95DFE4F1182108208958091260181111A
:1007C0001092260108958530910550F4880F991FE5
:1007D000FC01E95DFE4F2081318181E0232B09F08E
:1007E00080E008951F920F920FB60F9211242F935D
:1007F0003F938F939F93EF93FF9380E090E0FC01F2
:10080000EE0FFF1FE95DFE4F20813181232B31F078
:100810002081318121503109318320830196853037
:10082000910569F781E080932601A99AFF91EF91E4
:100830009F918F913F912F910F900FBE0F901F901E
:100840001895E0913201F09133013097A9F088E7D3
:10085000818380EF828313821092350110923401DC
:100860009081892F887F8083339B06C01F9B02C0A5
:1008700093FF02C0856080830895009739F09093BC
:10088000330180933201FC011082DBCF0895E091A7
:100890003201F09133013097E1F1843471F158F471
:1008A0008032A1F118F4813059F108958232F9F0C3
:1008B0008333B9F008958B3BE9F028F4853559F07E
:1008C0008A3A31F008958C3C49F08D3D69F00895E5
:1008D000808181601DC080818E7F1AC0808184608C
:1008E00017C080818B7F14C08081886011C0808197
:1008F000877F0EC0808182600BC080818D7F08C0A1
:1009000013821092350110923401089580818F7CFA
:10091000808308950F931F93CF93DF93009132014B
:10092000109133010115110509F45AC0C6B186B101
:10093000C2708470C82BD0913101CD1799F0DC279B
:10094000D1FF0AC0C1FF04C08CECA1DF8AEA01C05C
:1009500085E59DDF81E09BDFD2FF02C081E097DF6C
:10096000C0933101F801208120FF34C0809134010F
:100970009091350101969093350180933401893E21
:10098000934070F1F80183818F5F8383109235016A
:10099000109234019181891308C0822F8061808375
:1009A00021FF03C088E090E082DEE0913201F09107
:1009B000330193818281981313C08081982F9062B4
:1009C000908382FF0DC080E190E0DF91CF911F9175
:1009D0000F916DCEF80113821092350110923401FF
:1009E000DF91CF911F910F910895EE27FF27AA273E
:1009F000BB2708C0A20FB31FE41FF51F220F331F30
:100A0000441F551F969587957795679598F3704085
:100A1000A9F7009799F7BD01CF010895A1E21A2E19
:100A2000AA1BBB1BFD010DC0AA1FBB1FEE1FFF1F92
:100A3000A217B307E407F50720F0A21BB30BE40BE2
:100A4000F50B661F771F881F991F1A9469F7609529
:100A50007095809590959B01AC01BD01CF010895E3
:040A6000F894FFCF38
:080A6400E803F401FA007D0033
:00000001FF
